{
  "_format": "hh-sol-artifact-1",
  "contractName": "Simplest",
  "sourceName": "contracts/Simplest.sol",
  "abi": [
    {
      "inputs": [],
      "stateMutability": "nonpayable",
      "type": "constructor"
    },
    {
      "inputs": [
        {
          "internalType": "uint256",
          "name": "newVersion",
          "type": "uint256"
        }
      ],
      "name": "setVersion",
      "outputs": [],
      "stateMutability": "nonpayable",
      "type": "function"
    },
    {
      "inputs": [],
      "name": "version",
      "outputs": [
        {
          "internalType": "uint256",
          "name": "",
          "type": "uint256"
        }
      ],
      "stateMutability": "view",
      "type": "function"
    }
  ],
  "bytecode": "0x6080604052600160005534801561001557600080fd5b5060b1806100246000396000f3fe6080604052348015600f57600080fd5b506004361060325760003560e01c8063408def1e14603757806354fd4d50146049575b600080fd5b604760423660046063565b600055565b005b605160005481565b60405190815260200160405180910390f35b600060208284031215607457600080fd5b503591905056fea2646970667358221220c84155196f86de916ae8a9f1f58c4d85b8b8fd54088c79b3d1310e55d83e104564736f6c634300080b0033",
  "linkReferences": {},
  "deployedLinkReferences": {}
}