{
  "_format": "hh-sol-artifact-1",
  "contractName": "ERC721Mock",
  "sourceName": "contracts/ERC721Mock.sol",
  "abi": [
    {
      "inputs": [],
      "stateMutability": "nonpayable",
      "type": "constructor"
    },
    {
      "inputs": [],
      "name": "ApprovalCallerNotOwnerNorApproved",
      "type": "error"
    },
    {
      "inputs": [],
      "name": "ApprovalQueryForNonexistentToken",
      "type": "error"
    },
    {
      "inputs": [],
      "name": "ApprovalToCurrentOwner",
      "type": "error"
    },
    {
      "inputs": [],
      "name": "ApproveToCaller",
      "type": "error"
    },
    {
      "inputs": [],
      "name": "BalanceQueryForZeroAddress",
      "type": "error"
    },
    {
      "inputs": [],
      "name": "MintToZeroAddress",
      "type": "error"
    },
    {
      "inputs": [],
      "name": "MintZeroQuantity",
      "type": "error"
    },
    {
      "inputs": [],
      "name": "OwnerIndexOutOfBounds",
      "type": "error"
    },
    {
      "inputs": [],
      "name": "OwnerQueryForNonexistentToken",
      "type": "error"
    },
    {
      "inputs": [],
      "name": "TokenIndexOutOfBounds",
      "type": "error"
    },
    {
      "inputs": [],
      "name": "TransferCallerNotOwnerNorApproved",
      "type": "error"
    },
    {
      "inputs": [],
      "name": "TransferFromIncorrectOwner",
      "type": "error"
    },
    {
      "inputs": [],
      "name": "TransferToNonERC721ReceiverImplementer",
      "type": "error"
    },
    {
      "inputs": [],
      "name": "TransferToZeroAddress",
      "type": "error"
    },
    {
      "inputs": [],
      "name": "UnableDetermineTokenOwner",
      "type": "error"
    },
    {
      "inputs": [],
      "name": "UnableGetTokenOwnerByIndex",
      "type": "error"
    },
    {
      "anonymous": false,
      "inputs": [
        {
          "indexed": true,
          "internalType": "address",
          "name": "owner",
          "type": "address"
        },
        {
          "indexed": true,
          "internalType": "address",
          "name": "approved",
          "type": "address"
        },
        {
          "indexed": true,
          "internalType": "uint256",
          "name": "tokenId",
          "type": "uint256"
        }
      ],
      "name": "Approval",
      "type": "event"
    },
    {
      "anonymous": false,
      "inputs": [
        {
          "indexed": true,
          "internalType": "address",
          "name": "owner",
          "type": "address"
        },
        {
          "indexed": true,
          "internalType": "address",
          "name": "operator",
          "type": "address"
        },
        {
          "indexed": false,
          "internalType": "bool",
          "name": "approved",
          "type": "bool"
        }
      ],
      "name": "ApprovalForAll",
      "type": "event"
    },
    {
      "anonymous": false,
      "inputs": [
        {
          "indexed": true,
          "internalType": "address",
          "name": "previousOwner",
          "type": "address"
        },
        {
          "indexed": true,
          "internalType": "address",
          "name": "newOwner",
          "type": "address"
        }
      ],
      "name": "OwnershipTransferred",
      "type": "event"
    },
    {
      "anonymous": false,
      "inputs": [
        {
          "indexed": true,
          "internalType": "address",
          "name": "from",
          "type": "address"
        },
        {
          "indexed": true,
          "internalType": "address",
          "name": "to",
          "type": "address"
        },
        {
          "indexed": true,
          "internalType": "uint256",
          "name": "tokenId",
          "type": "uint256"
        }
      ],
      "name": "Transfer",
      "type": "event"
    },
    {
      "inputs": [
        {
          "internalType": "address",
          "name": "to",
          "type": "address"
        },
        {
          "internalType": "uint256",
          "name": "tokenId",
          "type": "uint256"
        }
      ],
      "name": "approve",
      "outputs": [],
      "stateMutability": "nonpayable",
      "type": "function"
    },
    {
      "inputs": [
        {
          "internalType": "address",
          "name": "owner",
          "type": "address"
        }
      ],
      "name": "balanceOf",
      "outputs": [
        {
          "internalType": "uint256",
          "name": "",
          "type": "uint256"
        }
      ],
      "stateMutability": "view",
      "type": "function"
    },
    {
      "inputs": [],
      "name": "contractURI",
      "outputs": [
        {
          "internalType": "string",
          "name": "",
          "type": "string"
        }
      ],
      "stateMutability": "view",
      "type": "function"
    },
    {
      "inputs": [
        {
          "internalType": "uint256",
          "name": "_tokenId",
          "type": "uint256"
        }
      ],
      "name": "exists",
      "outputs": [
        {
          "internalType": "bool",
          "name": "",
          "type": "bool"
        }
      ],
      "stateMutability": "view",
      "type": "function"
    },
    {
      "inputs": [
        {
          "internalType": "uint256",
          "name": "tokenId",
          "type": "uint256"
        }
      ],
      "name": "getApproved",
      "outputs": [
        {
          "internalType": "address",
          "name": "",
          "type": "address"
        }
      ],
      "stateMutability": "view",
      "type": "function"
    },
    {
      "inputs": [
        {
          "internalType": "address",
          "name": "owner",
          "type": "address"
        },
        {
          "internalType": "address",
          "name": "operator",
          "type": "address"
        }
      ],
      "name": "isApprovedForAll",
      "outputs": [
        {
          "internalType": "bool",
          "name": "",
          "type": "bool"
        }
      ],
      "stateMutability": "view",
      "type": "function"
    },
    {
      "inputs": [
        {
          "internalType": "address",
          "name": "to",
          "type": "address"
        },
        {
          "internalType": "uint256",
          "name": "qty",
          "type": "uint256"
        }
      ],
      "name": "mint",
      "outputs": [],
      "stateMutability": "nonpayable",
      "type": "function"
    },
    {
      "inputs": [
        {
          "internalType": "address",
          "name": "to",
          "type": "address"
        }
      ],
      "name": "mint",
      "outputs": [],
      "stateMutability": "nonpayable",
      "type": "function"
    },
    {
      "inputs": [],
      "name": "name",
      "outputs": [
        {
          "internalType": "string",
          "name": "",
          "type": "string"
        }
      ],
      "stateMutability": "view",
      "type": "function"
    },
    {
      "inputs": [],
      "name": "owner",
      "outputs": [
        {
          "internalType": "address",
          "name": "",
          "type": "address"
        }
      ],
      "stateMutability": "view",
      "type": "function"
    },
    {
      "inputs": [
        {
          "internalType": "uint256",
          "name": "tokenId",
          "type": "uint256"
        }
      ],
      "name": "ownerOf",
      "outputs": [
        {
          "internalType": "address",
          "name": "",
          "type": "address"
        }
      ],
      "stateMutability": "view",
      "type": "function"
    },
    {
      "inputs": [],
      "name": "renounceOwnership",
      "outputs": [],
      "stateMutability": "nonpayable",
      "type": "function"
    },
    {
      "inputs": [
        {
          "internalType": "address",
          "name": "from",
          "type": "address"
        },
        {
          "internalType": "address",
          "name": "to",
          "type": "address"
        },
        {
          "internalType": "uint256",
          "name": "tokenId",
          "type": "uint256"
        }
      ],
      "name": "safeTransferFrom",
      "outputs": [],
      "stateMutability": "nonpayable",
      "type": "function"
    },
    {
      "inputs": [
        {
          "internalType": "address",
          "name": "from",
          "type": "address"
        },
        {
          "internalType": "address",
          "name": "to",
          "type": "address"
        },
        {
          "internalType": "uint256",
          "name": "tokenId",
          "type": "uint256"
        },
        {
          "internalType": "bytes",
          "name": "_data",
          "type": "bytes"
        }
      ],
      "name": "safeTransferFrom",
      "outputs": [],
      "stateMutability": "nonpayable",
      "type": "function"
    },
    {
      "inputs": [
        {
          "internalType": "address",
          "name": "operator",
          "type": "address"
        },
        {
          "internalType": "bool",
          "name": "approved",
          "type": "bool"
        }
      ],
      "name": "setApprovalForAll",
      "outputs": [],
      "stateMutability": "nonpayable",
      "type": "function"
    },
    {
      "inputs": [
        {
          "internalType": "bytes4",
          "name": "interfaceId",
          "type": "bytes4"
        }
      ],
      "name": "supportsInterface",
      "outputs": [
        {
          "internalType": "bool",
          "name": "",
          "type": "bool"
        }
      ],
      "stateMutability": "view",
      "type": "function"
    },
    {
      "inputs": [],
      "name": "symbol",
      "outputs": [
        {
          "internalType": "string",
          "name": "",
          "type": "string"
        }
      ],
      "stateMutability": "view",
      "type": "function"
    },
    {
      "inputs": [
        {
          "internalType": "uint256",
          "name": "index",
          "type": "uint256"
        }
      ],
      "name": "tokenByIndex",
      "outputs": [
        {
          "internalType": "uint256",
          "name": "",
          "type": "uint256"
        }
      ],
      "stateMutability": "view",
      "type": "function"
    },
    {
      "inputs": [
        {
          "internalType": "address",
          "name": "owner",
          "type": "address"
        },
        {
          "internalType": "uint256",
          "name": "index",
          "type": "uint256"
        }
      ],
      "name": "tokenOfOwnerByIndex",
      "outputs": [
        {
          "internalType": "uint256",
          "name": "",
          "type": "uint256"
        }
      ],
      "stateMutability": "view",
      "type": "function"
    },
    {
      "inputs": [
        {
          "internalType": "uint256",
          "name": "_tokenId",
          "type": "uint256"
        }
      ],
      "name": "tokenURI",
      "outputs": [
        {
          "internalType": "string",
          "name": "",
          "type": "string"
        }
      ],
      "stateMutability": "view",
      "type": "function"
    },
    {
      "inputs": [
        {
          "internalType": "address",
          "name": "owner",
          "type": "address"
        },
        {
          "internalType": "uint256",
          "name": "start",
          "type": "uint256"
        },
        {
          "internalType": "uint256",
          "name": "limit",
          "type": "uint256"
        }
      ],
      "name": "tokensOfOwner",
      "outputs": [
        {
          "internalType": "uint256[]",
          "name": "",
          "type": "uint256[]"
        }
      ],
      "stateMutability": "view",
      "type": "function"
    },
    {
      "inputs": [],
      "name": "totalSupply",
      "outputs": [
        {
          "internalType": "uint256",
          "name": "",
          "type": "uint256"
        }
      ],
      "stateMutability": "view",
      "type": "function"
    },
    {
      "inputs": [
        {
          "internalType": "address",
          "name": "from",
          "type": "address"
        },
        {
          "internalType": "address",
          "name": "to",
          "type": "address"
        },
        {
          "internalType": "uint256",
          "name": "tokenId",
          "type": "uint256"
        }
      ],
      "name": "transferFrom",
      "outputs": [],
      "stateMutability": "nonpayable",
      "type": "function"
    },
    {
      "inputs": [
        {
          "internalType": "address",
          "name": "newOwner",
          "type": "address"
        }
      ],
      "name": "transferOwnership",
      "outputs": [],
      "stateMutability": "nonpayable",
      "type": "function"
    },
    {
      "inputs": [],
      "name": "withdrawETH",
      "outputs": [],
      "stateMutability": "nonpayable",
      "type": "function"
    }
  ],
  "bytecode": "0x60c0604052600c60808190526b697066733a2f2f787878782f60a01b60a09081526200002f916008919062000418565b5060408051808201909152600c8082526b697066733a2f2f797979797960a01b6020909201918252620000659160099162000418565b503480156200007357600080fd5b50604080518082018252600b81526a657263373231206d6f636b60a81b60208083019182528351808501909452600684526545524337323160d01b908401528151919291620000c59160019162000418565b508051620000db90600290602084019062000418565b505050620000f8620000f26200010b60201b60201c565b6200010f565b6200010533600a62000161565b620005a9565b3390565b600780546001600160a01b038381166001600160a01b0319831681179093556040519116919082907f8be0079c531659141344cd1fd0a4f28419497f9722a3daafe3b4186f6b6457e090600090a35050565b620001838282604051806020016040528060008152506200018760201b60201c565b5050565b6200019683838360016200019b565b505050565b6000546001600160a01b038516620001c557604051622e076360e81b815260040160405180910390fd5b83620001e45760405163b562e8dd60e01b815260040160405180910390fd5b6001600160a01b03851660008181526004602090815260408083208054600160801b6001600160801b031982166001600160801b039283168c01831690811782900483168c01909216021790558483526003909152812080546001600160e01b031916909217600160a01b426001600160401b0316021790915581905b85811015620002e85760405182906001600160a01b038916906000907fddf252ad1be2c89b69c2b068fc378daa952ba7f163c4a11628f55a4df523b3ef908290a4838015620002bc5750620002ba6000888488620002f3565b155b15620002db576040516368d2bf6b60e11b815260040160405180910390fd5b6001918201910162000261565b506000555050505050565b600062000314846001600160a01b03166200041260201b62000a941760201c565b156200040657604051630a85bd0160e11b81526001600160a01b0385169063150b7a02906200034e903390899088908890600401620004be565b6020604051808303816000875af19250505080156200038c575060408051601f3d908101601f19168201909252620003899181019062000539565b60015b620003eb573d808015620003bd576040519150601f19603f3d011682016040523d82523d6000602084013e620003c2565b606091505b508051620003e3576040516368d2bf6b60e11b815260040160405180910390fd5b805181602001fd5b6001600160e01b031916630a85bd0160e11b1490506200040a565b5060015b949350505050565b3b151590565b82805462000426906200056c565b90600052602060002090601f0160209004810192826200044a576000855562000495565b82601f106200046557805160ff191683800117855562000495565b8280016001018555821562000495579182015b828111156200049557825182559160200191906001019062000478565b50620004a3929150620004a7565b5090565b5b80821115620004a35760008155600101620004a8565b600060018060a01b038087168352602081871681850152856040850152608060608501528451915081608085015260005b828110156200050d5785810182015185820160a001528101620004ef565b828111156200052057600060a084870101525b5050601f01601f19169190910160a00195945050505050565b6000602082840312156200054c57600080fd5b81516001600160e01b0319811681146200056557600080fd5b9392505050565b600181811c908216806200058157607f821691505b60208210811415620005a357634e487b7160e01b600052602260045260246000fd5b50919050565b61170e80620005b96000396000f3fe608060405234801561001057600080fd5b50600436106101735760003560e01c80636a627842116100de578063b88d4fde11610097578063e086e5ec11610071578063e086e5ec1461032c578063e8a3d48514610334578063e985e9c51461033c578063f2fde38b1461037857600080fd5b8063b88d4fde146102e6578063c839fe94146102f9578063c87b56dd1461031957600080fd5b80636a6278421461028c57806370a082311461029f578063715018a6146102b25780638da5cb5b146102ba57806395d89b41146102cb578063a22cb465146102d357600080fd5b80632f745c59116101305780632f745c591461021a57806340c10f191461022d57806342842e0e146102405780634f558e79146102535780634f6ccce7146102665780636352211e1461027957600080fd5b806301ffc9a71461017857806306fdde03146101a0578063081812fc146101b5578063095ea7b3146101e057806318160ddd146101f557806323b872dd14610207575b600080fd5b61018b610186366004611181565b61038b565b60405190151581526020015b60405180910390f35b6101a86103f8565b60405161019791906111f6565b6101c86101c3366004611209565b61048a565b6040516001600160a01b039091168152602001610197565b6101f36101ee36600461123e565b6104d0565b005b6000545b604051908152602001610197565b6101f3610215366004611268565b61055e565b6101f961022836600461123e565b610569565b6101f361023b36600461123e565b610646565b6101f361024e366004611268565b610654565b61018b610261366004611209565b61066f565b6101f9610274366004611209565b61067c565b6101c8610287366004611209565b6106a3565b6101f361029a3660046112a4565b6106b5565b6101f96102ad3660046112a4565b6106c3565b6101f3610711565b6007546001600160a01b03166101c8565b6101a8610750565b6101f36102e13660046112bf565b61075f565b6101f36102f4366004611311565b6107f5565b61030c6103073660046113ed565b61082f565b6040516101979190611420565b6101a8610327366004611209565b6108f4565b6101f3610997565b6101a86109ed565b61018b61034a366004611464565b6001600160a01b03918216600090815260066020908152604080832093909416825291909152205460ff1690565b6101f36103863660046112a4565b6109fc565b60006001600160e01b031982166380ac58cd60e01b14806103bc57506001600160e01b03198216635b5e139f60e01b145b806103d757506001600160e01b0319821663780e9d6360e01b145b806103f257506301ffc9a760e01b6001600160e01b03198316145b92915050565b60606001805461040790611497565b80601f016020809104026020016040519081016040528092919081815260200182805461043390611497565b80156104805780601f1061045557610100808354040283529160200191610480565b820191906000526020600020905b81548152906001019060200180831161046357829003601f168201915b5050505050905090565b6000610497826000541190565b6104b4576040516333d1c03960e21b815260040160405180910390fd5b506000908152600560205260409020546001600160a01b031690565b60006104db826106a3565b9050806001600160a01b0316836001600160a01b031614156105105760405163250fdee360e21b815260040160405180910390fd5b336001600160a01b03821614801590610530575061052e813361034a565b155b1561054e576040516367d9dca160e11b815260040160405180910390fd5b610559838383610a9a565b505050565b610559838383610af6565b6000610574836106c3565b8210610593576040516306ed618760e11b815260040160405180910390fd5b600080549080805b8381101561062c576000818152600360209081526040918290208251808401909352546001600160a01b038116808452600160a01b90910467ffffffffffffffff1691830191909152156105ee57805192505b876001600160a01b0316836001600160a01b03161415610623578684141561061c575093506103f292505050565b6001909301925b5060010161059b565b50604051637339954760e01b815260040160405180910390fd5b6106508282610d15565b5050565b610559838383604051806020016040528060008152506107f5565b60006103f2826000541190565b60008054821061069f576040516329c8c00760e21b815260040160405180910390fd5b5090565b60006106ae82610d2f565b5192915050565b6106c0816001610d15565b50565b60006001600160a01b0382166106ec576040516323d3ad8160e21b815260040160405180910390fd5b506001600160a01b03166000908152600460205260409020546001600160801b031690565b6007546001600160a01b031633146107445760405162461bcd60e51b815260040161073b906114d2565b60405180910390fd5b61074e6000610dc4565b565b60606002805461040790611497565b6001600160a01b0382163314156107895760405163b06307db60e01b815260040160405180910390fd5b3360008181526006602090815260408083206001600160a01b03871680855290835292819020805460ff191686151590811790915590519081529192917f17307eab39ab6107e8899845ad3d59bd9653f200f220920489ca2b5937696c31910160405180910390a35050565b610800848484610af6565b61080c84848484610e16565b610829576040516368d2bf6b60e11b815260040160405180910390fd5b50505050565b6060600061083c856106c3565b9050806108595750506040805160008152602081019091526108ed565b60008167ffffffffffffffff811115610874576108746112fb565b60405190808252806020026020018201604052801561089d578160200160208202803683370190505b509050845b848110156108e3576108b48782610569565b8282815181106108c6576108c6611507565b6020908102919091010152806108db81611533565b9150506108a2565b5091506108ed9050565b9392505050565b6060610901826000541190565b6109655760405162461bcd60e51b815260206004820152602f60248201527f4552433732314d657461646174613a2055524920717565727920666f72206e6f60448201526e3732bc34b9ba32b73a103a37b5b2b760891b606482015260840161073b565b600861097083610f16565b60405160200161098192919061156a565b6040516020818303038152906040529050919050565b6007546001600160a01b031633146109c15760405162461bcd60e51b815260040161073b906114d2565b60405133904780156108fc02916000818181858888f193505050501580156106c0573d6000803e3d6000fd5b60606009805461040790611497565b6007546001600160a01b03163314610a265760405162461bcd60e51b815260040161073b906114d2565b6001600160a01b038116610a8b5760405162461bcd60e51b815260206004820152602660248201527f4f776e61626c653a206e6577206f776e657220697320746865207a65726f206160448201526564647265737360d01b606482015260840161073b565b6106c081610dc4565b3b151590565b60008281526005602052604080822080546001600160a01b0319166001600160a01b0387811691821790925591518593918516917f8c5be1e5ebec7d5bd14f71427d1e84f3dd0314c0f7b2291e5b200ac8c7c3b92591a4505050565b6000610b0182610d2f565b80519091506000906001600160a01b0316336001600160a01b03161480610b38575033610b2d8461048a565b6001600160a01b0316145b80610b4a57508151610b4a903361034a565b905080610b6a57604051632ce44b5f60e11b815260040160405180910390fd5b846001600160a01b031682600001516001600160a01b031614610b9f5760405162a1148160e81b815260040160405180910390fd5b6001600160a01b038416610bc657604051633a954ecd60e21b815260040160405180910390fd5b610bd66000848460000151610a9a565b6001600160a01b03858116600090815260046020908152604080832080546001600160801b03198082166001600160801b03928316600019018316179092558986168086528386208054938416938316600190810190931693909317909255888552600390935281842080546001600160e01b031916909117600160a01b4267ffffffffffffffff1602179055908601808352912054909116610ccb57610c7e816000541190565b15610ccb578251600082815260036020908152604090912080549186015167ffffffffffffffff16600160a01b026001600160e01b03199092166001600160a01b03909316929092171790555b5082846001600160a01b0316866001600160a01b03167fddf252ad1be2c89b69c2b068fc378daa952ba7f163c4a11628f55a4df523b3ef60405160405180910390a45b5050505050565b610650828260405180602001604052806000815250611014565b6040805180820190915260008082526020820152610d4e826000541190565b610d6b57604051636f96cda160e11b815260040160405180910390fd5b815b6000818152600360209081526040918290208251808401909352546001600160a01b038116808452600160a01b90910467ffffffffffffffff169183019190915215610dba579392505050565b5060001901610d6d565b600780546001600160a01b038381166001600160a01b0319831681179093556040519116919082907f8be0079c531659141344cd1fd0a4f28419497f9722a3daafe3b4186f6b6457e090600090a35050565b60006001600160a01b0384163b15610f0a57604051630a85bd0160e11b81526001600160a01b0385169063150b7a0290610e5a903390899088908890600401611611565b6020604051808303816000875af1925050508015610e95575060408051601f3d908101601f19168201909252610e929181019061164e565b60015b610ef0573d808015610ec3576040519150601f19603f3d011682016040523d82523d6000602084013e610ec8565b606091505b508051610ee8576040516368d2bf6b60e11b815260040160405180910390fd5b805181602001fd5b6001600160e01b031916630a85bd0160e11b149050610f0e565b5060015b949350505050565b606081610f3a5750506040805180820190915260018152600360fc1b602082015290565b8160005b8115610f645780610f4e81611533565b9150610f5d9050600a83611681565b9150610f3e565b60008167ffffffffffffffff811115610f7f57610f7f6112fb565b6040519080825280601f01601f191660200182016040528015610fa9576020820181803683370190505b5090505b8415610f0e57610fbe600183611695565b9150610fcb600a866116ac565b610fd69060306116c0565b60f81b818381518110610feb57610feb611507565b60200101906001600160f81b031916908160001a90535061100d600a86611681565b9450610fad565b61055983838360016000546001600160a01b03851661104557604051622e076360e81b815260040160405180910390fd5b836110635760405163b562e8dd60e01b815260040160405180910390fd5b6001600160a01b03851660008181526004602090815260408083208054600160801b6001600160801b031982166001600160801b039283168c01831690811782900483168c01909216021790558483526003909152812080546001600160e01b031916909217600160a01b4267ffffffffffffffff16021790915581905b858110156111625760405182906001600160a01b038916906000907fddf252ad1be2c89b69c2b068fc378daa952ba7f163c4a11628f55a4df523b3ef908290a483801561113857506111366000888488610e16565b155b15611156576040516368d2bf6b60e11b815260040160405180910390fd5b600191820191016110e1565b50600055610d0e565b6001600160e01b0319811681146106c057600080fd5b60006020828403121561119357600080fd5b81356108ed8161116b565b60005b838110156111b95781810151838201526020016111a1565b838111156108295750506000910152565b600081518084526111e281602086016020860161119e565b601f01601f19169290920160200192915050565b6020815260006108ed60208301846111ca565b60006020828403121561121b57600080fd5b5035919050565b80356001600160a01b038116811461123957600080fd5b919050565b6000806040838503121561125157600080fd5b61125a83611222565b946020939093013593505050565b60008060006060848603121561127d57600080fd5b61128684611222565b925061129460208501611222565b9150604084013590509250925092565b6000602082840312156112b657600080fd5b6108ed82611222565b600080604083850312156112d257600080fd5b6112db83611222565b9150602083013580151581146112f057600080fd5b809150509250929050565b634e487b7160e01b600052604160045260246000fd5b6000806000806080858703121561132757600080fd5b61133085611222565b935061133e60208601611222565b925060408501359150606085013567ffffffffffffffff8082111561136257600080fd5b818701915087601f83011261137657600080fd5b813581811115611388576113886112fb565b604051601f8201601f19908116603f011681019083821181831017156113b0576113b06112fb565b816040528281528a60208487010111156113c957600080fd5b82602086016020830137600060208483010152809550505050505092959194509250565b60008060006060848603121561140257600080fd5b61140b84611222565b95602085013595506040909401359392505050565b6020808252825182820181905260009190848201906040850190845b818110156114585783518352928401929184019160010161143c565b50909695505050505050565b6000806040838503121561147757600080fd5b61148083611222565b915061148e60208401611222565b90509250929050565b600181811c908216806114ab57607f821691505b602082108114156114cc57634e487b7160e01b600052602260045260246000fd5b50919050565b6020808252818101527f4f776e61626c653a2063616c6c6572206973206e6f7420746865206f776e6572604082015260600190565b634e487b7160e01b600052603260045260246000fd5b634e487b7160e01b600052601160045260246000fd5b60006000198214156115475761154761151d565b5060010190565b6000815161156081856020860161119e565b9290920192915050565b600080845481600182811c91508083168061158657607f831692505b60208084108214156115a657634e487b7160e01b86526022600452602486fd5b8180156115ba57600181146115cb576115f8565b60ff198616895284890196506115f8565b60008b81526020902060005b868110156115f05781548b8201529085019083016115d7565b505084890196505b505050505050611608818561154e565b95945050505050565b6001600160a01b0385811682528416602082015260408101839052608060608201819052600090611644908301846111ca565b9695505050505050565b60006020828403121561166057600080fd5b81516108ed8161116b565b634e487b7160e01b600052601260045260246000fd5b6000826116905761169061166b565b500490565b6000828210156116a7576116a761151d565b500390565b6000826116bb576116bb61166b565b500690565b600082198211156116d3576116d361151d565b50019056fea26469706673582212207a4cea4fa9c7b06a0f83a123a0e8cf02af93221c34341af919062635d232faa564736f6c634300080b0033",
  "linkReferences": {},
  "deployedLinkReferences": {}
}