{
  "_format": "hh-sol-artifact-1",
  "contractName": "MetaboxNFTToken",
  "sourceName": "contracts/MetaboxNFTToken.sol",
  "abi": [
    {
      "inputs": [],
      "stateMutability": "nonpayable",
      "type": "constructor"
    },
    {
      "anonymous": false,
      "inputs": [
        {
          "indexed": true,
          "internalType": "address",
          "name": "owner",
          "type": "address"
        },
        {
          "indexed": true,
          "internalType": "address",
          "name": "approved",
          "type": "address"
        },
        {
          "indexed": true,
          "internalType": "uint256",
          "name": "tokenId",
          "type": "uint256"
        }
      ],
      "name": "Approval",
      "type": "event"
    },
    {
      "anonymous": false,
      "inputs": [
        {
          "indexed": true,
          "internalType": "address",
          "name": "owner",
          "type": "address"
        },
        {
          "indexed": true,
          "internalType": "address",
          "name": "operator",
          "type": "address"
        },
        {
          "indexed": false,
          "internalType": "bool",
          "name": "approved",
          "type": "bool"
        }
      ],
      "name": "ApprovalForAll",
      "type": "event"
    },
    {
      "anonymous": false,
      "inputs": [
        {
          "indexed": true,
          "internalType": "address",
          "name": "previousOwner",
          "type": "address"
        },
        {
          "indexed": true,
          "internalType": "address",
          "name": "newOwner",
          "type": "address"
        }
      ],
      "name": "OwnershipTransferred",
      "type": "event"
    },
    {
      "anonymous": false,
      "inputs": [
        {
          "indexed": false,
          "internalType": "address",
          "name": "account",
          "type": "address"
        }
      ],
      "name": "Paused",
      "type": "event"
    },
    {
      "anonymous": false,
      "inputs": [
        {
          "indexed": true,
          "internalType": "bytes32",
          "name": "role",
          "type": "bytes32"
        },
        {
          "indexed": true,
          "internalType": "bytes32",
          "name": "previousAdminRole",
          "type": "bytes32"
        },
        {
          "indexed": true,
          "internalType": "bytes32",
          "name": "newAdminRole",
          "type": "bytes32"
        }
      ],
      "name": "RoleAdminChanged",
      "type": "event"
    },
    {
      "anonymous": false,
      "inputs": [
        {
          "indexed": true,
          "internalType": "bytes32",
          "name": "role",
          "type": "bytes32"
        },
        {
          "indexed": true,
          "internalType": "address",
          "name": "account",
          "type": "address"
        },
        {
          "indexed": true,
          "internalType": "address",
          "name": "sender",
          "type": "address"
        }
      ],
      "name": "RoleGranted",
      "type": "event"
    },
    {
      "anonymous": false,
      "inputs": [
        {
          "indexed": true,
          "internalType": "bytes32",
          "name": "role",
          "type": "bytes32"
        },
        {
          "indexed": true,
          "internalType": "address",
          "name": "account",
          "type": "address"
        },
        {
          "indexed": true,
          "internalType": "address",
          "name": "sender",
          "type": "address"
        }
      ],
      "name": "RoleRevoked",
      "type": "event"
    },
    {
      "anonymous": false,
      "inputs": [
        {
          "indexed": true,
          "internalType": "address",
          "name": "from",
          "type": "address"
        },
        {
          "indexed": true,
          "internalType": "address",
          "name": "to",
          "type": "address"
        },
        {
          "indexed": true,
          "internalType": "uint256",
          "name": "tokenId",
          "type": "uint256"
        }
      ],
      "name": "Transfer",
      "type": "event"
    },
    {
      "anonymous": false,
      "inputs": [
        {
          "indexed": false,
          "internalType": "address",
          "name": "account",
          "type": "address"
        }
      ],
      "name": "Unpaused",
      "type": "event"
    },
    {
      "inputs": [],
      "name": "DEFAULT_ADMIN_ROLE",
      "outputs": [
        {
          "internalType": "bytes32",
          "name": "",
          "type": "bytes32"
        }
      ],
      "stateMutability": "view",
      "type": "function"
    },
    {
      "inputs": [],
      "name": "MINTER_ADMIN_ROLE",
      "outputs": [
        {
          "internalType": "bytes32",
          "name": "",
          "type": "bytes32"
        }
      ],
      "stateMutability": "view",
      "type": "function"
    },
    {
      "inputs": [],
      "name": "MINTER_ROLE",
      "outputs": [
        {
          "internalType": "bytes32",
          "name": "",
          "type": "bytes32"
        }
      ],
      "stateMutability": "view",
      "type": "function"
    },
    {
      "inputs": [],
      "name": "PAUSER_ROLE",
      "outputs": [
        {
          "internalType": "bytes32",
          "name": "",
          "type": "bytes32"
        }
      ],
      "stateMutability": "view",
      "type": "function"
    },
    {
      "inputs": [
        {
          "internalType": "address",
          "name": "to",
          "type": "address"
        },
        {
          "internalType": "uint256",
          "name": "tokenId",
          "type": "uint256"
        }
      ],
      "name": "approve",
      "outputs": [],
      "stateMutability": "nonpayable",
      "type": "function"
    },
    {
      "inputs": [
        {
          "internalType": "address",
          "name": "owner",
          "type": "address"
        }
      ],
      "name": "balanceOf",
      "outputs": [
        {
          "internalType": "uint256",
          "name": "",
          "type": "uint256"
        }
      ],
      "stateMutability": "view",
      "type": "function"
    },
    {
      "inputs": [
        {
          "internalType": "address[]",
          "name": "to",
          "type": "address[]"
        },
        {
          "internalType": "uint256[]",
          "name": "tokenId",
          "type": "uint256[]"
        },
        {
          "internalType": "string[]",
          "name": "tokenIPFSURI",
          "type": "string[]"
        }
      ],
      "name": "bulk_mint",
      "outputs": [],
      "stateMutability": "nonpayable",
      "type": "function"
    },
    {
      "inputs": [
        {
          "internalType": "uint256",
          "name": "tokenId",
          "type": "uint256"
        }
      ],
      "name": "burn",
      "outputs": [],
      "stateMutability": "nonpayable",
      "type": "function"
    },
    {
      "inputs": [
        {
          "internalType": "uint256",
          "name": "tokenId",
          "type": "uint256"
        }
      ],
      "name": "getApproved",
      "outputs": [
        {
          "internalType": "address",
          "name": "",
          "type": "address"
        }
      ],
      "stateMutability": "view",
      "type": "function"
    },
    {
      "inputs": [
        {
          "internalType": "bytes32",
          "name": "role",
          "type": "bytes32"
        }
      ],
      "name": "getRoleAdmin",
      "outputs": [
        {
          "internalType": "bytes32",
          "name": "",
          "type": "bytes32"
        }
      ],
      "stateMutability": "view",
      "type": "function"
    },
    {
      "inputs": [
        {
          "internalType": "bytes32",
          "name": "role",
          "type": "bytes32"
        },
        {
          "internalType": "uint256",
          "name": "index",
          "type": "uint256"
        }
      ],
      "name": "getRoleMember",
      "outputs": [
        {
          "internalType": "address",
          "name": "",
          "type": "address"
        }
      ],
      "stateMutability": "view",
      "type": "function"
    },
    {
      "inputs": [
        {
          "internalType": "bytes32",
          "name": "role",
          "type": "bytes32"
        }
      ],
      "name": "getRoleMemberCount",
      "outputs": [
        {
          "internalType": "uint256",
          "name": "",
          "type": "uint256"
        }
      ],
      "stateMutability": "view",
      "type": "function"
    },
    {
      "inputs": [
        {
          "internalType": "bytes32",
          "name": "role",
          "type": "bytes32"
        },
        {
          "internalType": "address",
          "name": "account",
          "type": "address"
        }
      ],
      "name": "grantRole",
      "outputs": [],
      "stateMutability": "nonpayable",
      "type": "function"
    },
    {
      "inputs": [
        {
          "internalType": "bytes32",
          "name": "role",
          "type": "bytes32"
        },
        {
          "internalType": "address",
          "name": "account",
          "type": "address"
        }
      ],
      "name": "hasRole",
      "outputs": [
        {
          "internalType": "bool",
          "name": "",
          "type": "bool"
        }
      ],
      "stateMutability": "view",
      "type": "function"
    },
    {
      "inputs": [
        {
          "internalType": "address",
          "name": "owner",
          "type": "address"
        },
        {
          "internalType": "address",
          "name": "operator",
          "type": "address"
        }
      ],
      "name": "isApprovedForAll",
      "outputs": [
        {
          "internalType": "bool",
          "name": "",
          "type": "bool"
        }
      ],
      "stateMutability": "view",
      "type": "function"
    },
    {
      "inputs": [
        {
          "internalType": "address",
          "name": "mint_to",
          "type": "address"
        },
        {
          "internalType": "address",
          "name": "approve_to",
          "type": "address"
        },
        {
          "internalType": "uint256",
          "name": "tokenId",
          "type": "uint256"
        },
        {
          "internalType": "string",
          "name": "tokenIPFSURI",
          "type": "string"
        }
      ],
      "name": "mint_approve",
      "outputs": [],
      "stateMutability": "nonpayable",
      "type": "function"
    },
    {
      "inputs": [
        {
          "internalType": "address",
          "name": "to",
          "type": "address"
        },
        {
          "internalType": "uint256",
          "name": "tokenId",
          "type": "uint256"
        },
        {
          "internalType": "string",
          "name": "tokenIPFSURI",
          "type": "string"
        }
      ],
      "name": "mint_by_id",
      "outputs": [],
      "stateMutability": "nonpayable",
      "type": "function"
    },
    {
      "inputs": [],
      "name": "name",
      "outputs": [
        {
          "internalType": "string",
          "name": "",
          "type": "string"
        }
      ],
      "stateMutability": "view",
      "type": "function"
    },
    {
      "inputs": [],
      "name": "owner",
      "outputs": [
        {
          "internalType": "address",
          "name": "",
          "type": "address"
        }
      ],
      "stateMutability": "view",
      "type": "function"
    },
    {
      "inputs": [
        {
          "internalType": "uint256",
          "name": "tokenId",
          "type": "uint256"
        }
      ],
      "name": "ownerOf",
      "outputs": [
        {
          "internalType": "address",
          "name": "",
          "type": "address"
        }
      ],
      "stateMutability": "view",
      "type": "function"
    },
    {
      "inputs": [],
      "name": "paused",
      "outputs": [
        {
          "internalType": "bool",
          "name": "",
          "type": "bool"
        }
      ],
      "stateMutability": "view",
      "type": "function"
    },
    {
      "inputs": [],
      "name": "renounceOwnership",
      "outputs": [],
      "stateMutability": "nonpayable",
      "type": "function"
    },
    {
      "inputs": [
        {
          "internalType": "bytes32",
          "name": "role",
          "type": "bytes32"
        },
        {
          "internalType": "address",
          "name": "account",
          "type": "address"
        }
      ],
      "name": "renounceRole",
      "outputs": [],
      "stateMutability": "nonpayable",
      "type": "function"
    },
    {
      "inputs": [
        {
          "internalType": "bytes32",
          "name": "role",
          "type": "bytes32"
        },
        {
          "internalType": "address",
          "name": "account",
          "type": "address"
        }
      ],
      "name": "revokeRole",
      "outputs": [],
      "stateMutability": "nonpayable",
      "type": "function"
    },
    {
      "inputs": [
        {
          "internalType": "address",
          "name": "from",
          "type": "address"
        },
        {
          "internalType": "address",
          "name": "to",
          "type": "address"
        },
        {
          "internalType": "uint256",
          "name": "tokenId",
          "type": "uint256"
        }
      ],
      "name": "safeTransferFrom",
      "outputs": [],
      "stateMutability": "nonpayable",
      "type": "function"
    },
    {
      "inputs": [
        {
          "internalType": "address",
          "name": "from",
          "type": "address"
        },
        {
          "internalType": "address",
          "name": "to",
          "type": "address"
        },
        {
          "internalType": "uint256",
          "name": "tokenId",
          "type": "uint256"
        },
        {
          "internalType": "bytes",
          "name": "_data",
          "type": "bytes"
        }
      ],
      "name": "safeTransferFrom",
      "outputs": [],
      "stateMutability": "nonpayable",
      "type": "function"
    },
    {
      "inputs": [
        {
          "internalType": "address",
          "name": "operator",
          "type": "address"
        },
        {
          "internalType": "bool",
          "name": "approved",
          "type": "bool"
        }
      ],
      "name": "setApprovalForAll",
      "outputs": [],
      "stateMutability": "nonpayable",
      "type": "function"
    },
    {
      "inputs": [
        {
          "internalType": "bytes4",
          "name": "interfaceId",
          "type": "bytes4"
        }
      ],
      "name": "supportsInterface",
      "outputs": [
        {
          "internalType": "bool",
          "name": "",
          "type": "bool"
        }
      ],
      "stateMutability": "view",
      "type": "function"
    },
    {
      "inputs": [],
      "name": "symbol",
      "outputs": [
        {
          "internalType": "string",
          "name": "",
          "type": "string"
        }
      ],
      "stateMutability": "view",
      "type": "function"
    },
    {
      "inputs": [
        {
          "internalType": "uint256",
          "name": "index",
          "type": "uint256"
        }
      ],
      "name": "tokenByIndex",
      "outputs": [
        {
          "internalType": "uint256",
          "name": "",
          "type": "uint256"
        }
      ],
      "stateMutability": "view",
      "type": "function"
    },
    {
      "inputs": [
        {
          "internalType": "address",
          "name": "owner",
          "type": "address"
        },
        {
          "internalType": "uint256",
          "name": "index",
          "type": "uint256"
        }
      ],
      "name": "tokenOfOwnerByIndex",
      "outputs": [
        {
          "internalType": "uint256",
          "name": "",
          "type": "uint256"
        }
      ],
      "stateMutability": "view",
      "type": "function"
    },
    {
      "inputs": [
        {
          "internalType": "uint256",
          "name": "tokenId",
          "type": "uint256"
        }
      ],
      "name": "tokenURI",
      "outputs": [
        {
          "internalType": "string",
          "name": "",
          "type": "string"
        }
      ],
      "stateMutability": "view",
      "type": "function"
    },
    {
      "inputs": [],
      "name": "totalSupply",
      "outputs": [
        {
          "internalType": "uint256",
          "name": "",
          "type": "uint256"
        }
      ],
      "stateMutability": "view",
      "type": "function"
    },
    {
      "inputs": [
        {
          "internalType": "address",
          "name": "from",
          "type": "address"
        },
        {
          "internalType": "address",
          "name": "to",
          "type": "address"
        },
        {
          "internalType": "uint256",
          "name": "tokenId",
          "type": "uint256"
        }
      ],
      "name": "transferFrom",
      "outputs": [],
      "stateMutability": "nonpayable",
      "type": "function"
    },
    {
      "inputs": [
        {
          "internalType": "address",
          "name": "newOwner",
          "type": "address"
        }
      ],
      "name": "transferOwnership",
      "outputs": [],
      "stateMutability": "nonpayable",
      "type": "function"
    }
  ],
  "bytecode": "0x60806040523480156200001157600080fd5b50604080518082018252600a81526913595d18589bde13919560b21b602080830191825283518085019094526005845264135153919560da1b908401528151919291620000619160029162000492565b5080516200007790600390602084019062000492565b5050600c805460ff1916905550600e80546001600160a01b03191633908117909155604051819060009060008051602062003266833981519152908290a350620000d760007349ad39c8b8247d42113bfc53625ac4432770d1f2620001c7565b6200010660008051602062003286833981519152732f390b2fd4f496a06617fec4ae96813d44f3e8f2620001c7565b620001467f70480ee89cb38eff00b7d23da25713d52ce19c6ed428691d22c58b2f615e3d677349ad39c8b8247d42113bfc53625ac4432770d1f2620001c7565b62000181600080516020620032868339815191527f70480ee89cb38eff00b7d23da25713d52ce19c6ed428691d22c58b2f615e3d676200020a565b604080516020810191829052600090819052620001a191600f9162000492565b50620001c17349ad39c8b8247d42113bfc53625ac4432770d1f26200025e565b62000575565b620001de82826200037060201b62000f361760201c565b60008281526001602090815260409091206200020591839062000f4462000380821b17901c565b505050565b600082815260208190526040902060010154819060405184907fbd79b86ffe0ab8e8776151514217cd7cacd52c909f66475c3af44e129f0b00ff90600090a460009182526020829052604090912060010155565b600e546001600160a01b03163314620002be5760405162461bcd60e51b815260206004820181905260248201527f4f776e61626c653a2063616c6c6572206973206e6f7420746865206f776e657260448201526064015b60405180910390fd5b6001600160a01b038116620003255760405162461bcd60e51b815260206004820152602660248201527f4f776e61626c653a206e6577206f776e657220697320746865207a65726f206160448201526564647265737360d01b6064820152608401620002b5565b600e546040516001600160a01b038084169216906000805160206200326683398151915290600090a3600e80546001600160a01b0319166001600160a01b0392909216919091179055565b6200037c8282620003a0565b5050565b600062000397836001600160a01b03841662000440565b90505b92915050565b6000828152602081815260408083206001600160a01b038516845290915290205460ff166200037c576000828152602081815260408083206001600160a01b03851684529091529020805460ff19166001179055620003fc3390565b6001600160a01b0316816001600160a01b0316837f2f8788117e7eff1d82e926ec794901d17c78024a50270940304540a733656f0d60405160405180910390a45050565b600081815260018301602052604081205462000489575081546001818101845560008481526020808220909301849055845484825282860190935260409020919091556200039a565b5060006200039a565b828054620004a09062000538565b90600052602060002090601f016020900481019282620004c457600085556200050f565b82601f10620004df57805160ff19168380011785556200050f565b828001600101855582156200050f579182015b828111156200050f578251825591602001919060010190620004f2565b506200051d92915062000521565b5090565b5b808211156200051d576000815560010162000522565b600181811c908216806200054d57607f821691505b602082108114156200056f57634e487b7160e01b600052602260045260246000fd5b50919050565b612ce180620005856000396000f3fe608060405234801561001057600080fd5b50600436106102115760003560e01c806370a0823111610125578063b88d4fde116100ad578063d53913931161007c578063d53913931461047d578063d547741f14610492578063e63ab1e9146104a5578063e985e9c5146104cc578063f2fde38b1461050857600080fd5b8063b88d4fde14610431578063ba8cc5cd14610444578063c87b56dd14610457578063ca15c8731461046a57600080fd5b80639010d07c116100f45780639010d07c146103e857806391d14854146103fb57806395d89b411461040e578063a217fddf14610416578063a22cb4651461041e57600080fd5b806370a08231146103a9578063715018a6146103bc57806380998d98146103c45780638da5cb5b146103d757600080fd5b80632f2ff15d116101a857806342966c681161017757806342966c68146103525780634472a455146103655780634f6ccce7146103785780635c975abb1461038b5780636352211e1461039657600080fd5b80632f2ff15d146103065780632f745c591461031957806336568abe1461032c57806342842e0e1461033f57600080fd5b80631339324b116101e45780631339324b1461029357806318160ddd146102c857806323b872dd146102d0578063248a9ca3146102e357600080fd5b806301ffc9a71461021657806306fdde031461023e578063081812fc14610253578063095ea7b31461027e575b600080fd5b6102296102243660046123a2565b61051b565b60405190151581526020015b60405180910390f35b61024661052c565b6040516102359190612417565b61026661026136600461242a565b6105be565b6040516001600160a01b039091168152602001610235565b61029161028c36600461245f565b61064b565b005b6102ba7f70480ee89cb38eff00b7d23da25713d52ce19c6ed428691d22c58b2f615e3d6781565b604051908152602001610235565b600a546102ba565b6102916102de366004612489565b610761565b6102ba6102f136600461242a565b60009081526020819052604090206001015490565b6102916103143660046124c5565b610793565b6102ba61032736600461245f565b6107b5565b61029161033a3660046124c5565b61084b565b61029161034d366004612489565b61086d565b61029161036036600461242a565b610888565b6102916103733660046125b0565b610902565b6102ba61038636600461242a565b61095a565b600c5460ff16610229565b6102666103a436600461242a565b6109ed565b6102ba6103b7366004612618565b610a64565b610291610aeb565b6102916103d2366004612633565b610b8f565b600e546001600160a01b0316610266565b6102666103f636600461268a565b610bd7565b6102296104093660046124c5565b610bf6565b610246610c1f565b6102ba600081565b61029161042c3660046126ac565b610c2e565b61029161043f3660046126e8565b610cf3565b610291610452366004612867565b610d25565b61024661046536600461242a565b610def565b6102ba61047836600461242a565b610dfa565b6102ba600080516020612c8c83398151915281565b6102916104a03660046124c5565b610e11565b6102ba7f65d7a28e3265b37a6474929f336521b332c1681b933f6cb9f3376673440d862a81565b6102296104da366004612941565b6001600160a01b03918216600090815260076020908152604080832093909416825291909152205460ff1690565b610291610516366004612618565b610e1b565b600061052682610f59565b92915050565b60606002805461053b9061296b565b80601f01602080910402602001604051908101604052809291908181526020018280546105679061296b565b80156105b45780601f10610589576101008083540402835291602001916105b4565b820191906000526020600020905b81548152906001019060200180831161059757829003601f168201915b5050505050905090565b60006105c982610f7e565b61062f5760405162461bcd60e51b815260206004820152602c60248201527f4552433732313a20617070726f76656420717565727920666f72206e6f6e657860448201526b34b9ba32b73a103a37b5b2b760a11b60648201526084015b60405180910390fd5b506000908152600660205260409020546001600160a01b031690565b6000610656826109ed565b9050806001600160a01b0316836001600160a01b031614156106c45760405162461bcd60e51b815260206004820152602160248201527f4552433732313a20617070726f76616c20746f2063757272656e74206f776e656044820152603960f91b6064820152608401610626565b336001600160a01b03821614806106e057506106e081336104da565b6107525760405162461bcd60e51b815260206004820152603860248201527f4552433732313a20617070726f76652063616c6c6572206973206e6f74206f7760448201527f6e6572206e6f7220617070726f76656420666f7220616c6c00000000000000006064820152608401610626565b61075c8383610f9b565b505050565b61076c335b82611009565b6107885760405162461bcd60e51b8152600401610626906129a6565b61075c8383836110f3565b61079d828261129e565b600082815260016020526040902061075c9082610f44565b60006107c083610a64565b82106108225760405162461bcd60e51b815260206004820152602b60248201527f455243373231456e756d657261626c653a206f776e657220696e646578206f7560448201526a74206f6620626f756e647360a81b6064820152608401610626565b506001600160a01b03919091166000908152600860209081526040808320938352929052205490565b61085582826112c4565b600082815260016020526040902061075c908261133e565b61075c83838360405180602001604052806000815250610cf3565b61089133610766565b6108f65760405162461bcd60e51b815260206004820152603060248201527f4552433732314275726e61626c653a2063616c6c6572206973206e6f74206f7760448201526f1b995c881b9bdc88185c1c1c9bdd995960821b6064820152608401610626565b6108ff81611353565b50565b61091a600080516020612c8c83398151915233610bf6565b6109365760405162461bcd60e51b8152600401610626906129f7565b610940848361135c565b61094a828261149b565b6109548383610f9b565b50505050565b6000610965600a5490565b82106109c85760405162461bcd60e51b815260206004820152602c60248201527f455243373231456e756d657261626c653a20676c6f62616c20696e646578206f60448201526b7574206f6620626f756e647360a01b6064820152608401610626565b600a82815481106109db576109db612a3b565b90600052602060002001549050919050565b6000818152600460205260408120546001600160a01b0316806105265760405162461bcd60e51b815260206004820152602960248201527f4552433732313a206f776e657220717565727920666f72206e6f6e657869737460448201526832b73a103a37b5b2b760b91b6064820152608401610626565b60006001600160a01b038216610acf5760405162461bcd60e51b815260206004820152602a60248201527f4552433732313a2062616c616e636520717565727920666f7220746865207a65604482015269726f206164647265737360b01b6064820152608401610626565b506001600160a01b031660009081526005602052604090205490565b600e546001600160a01b03163314610b455760405162461bcd60e51b815260206004820181905260248201527f4f776e61626c653a2063616c6c6572206973206e6f7420746865206f776e65726044820152606401610626565b600e546040516000916001600160a01b0316907f8be0079c531659141344cd1fd0a4f28419497f9722a3daafe3b4186f6b6457e0908390a3600e80546001600160a01b0319169055565b610ba7600080516020612c8c83398151915233610bf6565b610bc35760405162461bcd60e51b8152600401610626906129f7565b610bcd838361135c565b61075c828261149b565b6000828152600160205260408120610bef9083611526565b9392505050565b6000918252602082815260408084206001600160a01b0393909316845291905290205460ff1690565b60606003805461053b9061296b565b6001600160a01b038216331415610c875760405162461bcd60e51b815260206004820152601960248201527f4552433732313a20617070726f766520746f2063616c6c6572000000000000006044820152606401610626565b3360008181526007602090815260408083206001600160a01b03871680855290835292819020805460ff191686151590811790915590519081529192917f17307eab39ab6107e8899845ad3d59bd9653f200f220920489ca2b5937696c31910160405180910390a35050565b610cfd3383611009565b610d195760405162461bcd60e51b8152600401610626906129a6565b61095484848484611532565b610d3d600080516020612c8c83398151915233610bf6565b610d595760405162461bcd60e51b8152600401610626906129f7565b60005b825181101561095457610da1848281518110610d7a57610d7a612a3b565b6020026020010151848381518110610d9457610d94612a3b565b602002602001015161135c565b610ddd838281518110610db657610db6612a3b565b6020026020010151838381518110610dd057610dd0612a3b565b602002602001015161149b565b610de8600182612a67565b9050610d5c565b606061052682611565565b6000818152600160205260408120610526906116c7565b61085582826116d1565b600e546001600160a01b03163314610e755760405162461bcd60e51b815260206004820181905260248201527f4f776e61626c653a2063616c6c6572206973206e6f7420746865206f776e65726044820152606401610626565b6001600160a01b038116610eda5760405162461bcd60e51b815260206004820152602660248201527f4f776e61626c653a206e6577206f776e657220697320746865207a65726f206160448201526564647265737360d01b6064820152608401610626565b600e546040516001600160a01b038084169216907f8be0079c531659141344cd1fd0a4f28419497f9722a3daafe3b4186f6b6457e090600090a3600e80546001600160a01b0319166001600160a01b0392909216919091179055565b610f4082826116f7565b5050565b6000610bef836001600160a01b03841661177b565b60006001600160e01b0319821663780e9d6360e01b14806105265750610526826117ca565b6000908152600460205260409020546001600160a01b0316151590565b600081815260066020526040902080546001600160a01b0319166001600160a01b0384169081179091558190610fd0826109ed565b6001600160a01b03167f8c5be1e5ebec7d5bd14f71427d1e84f3dd0314c0f7b2291e5b200ac8c7c3b92560405160405180910390a45050565b600061101482610f7e565b6110755760405162461bcd60e51b815260206004820152602c60248201527f4552433732313a206f70657261746f7220717565727920666f72206e6f6e657860448201526b34b9ba32b73a103a37b5b2b760a11b6064820152608401610626565b6000611080836109ed565b9050806001600160a01b0316846001600160a01b031614806110bb5750836001600160a01b03166110b0846105be565b6001600160a01b0316145b806110eb57506001600160a01b0380821660009081526007602090815260408083209388168352929052205460ff165b949350505050565b826001600160a01b0316611106826109ed565b6001600160a01b03161461116e5760405162461bcd60e51b815260206004820152602960248201527f4552433732313a207472616e73666572206f6620746f6b656e2074686174206960448201526839903737ba1037bbb760b91b6064820152608401610626565b6001600160a01b0382166111d05760405162461bcd60e51b8152602060048201526024808201527f4552433732313a207472616e7366657220746f20746865207a65726f206164646044820152637265737360e01b6064820152608401610626565b6111db83838361180a565b6111e6600082610f9b565b6001600160a01b038316600090815260056020526040812080546001929061120f908490612a7f565b90915550506001600160a01b038216600090815260056020526040812080546001929061123d908490612a67565b909155505060008181526004602052604080822080546001600160a01b0319166001600160a01b0386811691821790925591518493918716917fddf252ad1be2c89b69c2b068fc378daa952ba7f163c4a11628f55a4df523b3ef91a4505050565b6000828152602081905260409020600101546112ba8133611815565b61075c83836116f7565b6001600160a01b03811633146113345760405162461bcd60e51b815260206004820152602f60248201527f416363657373436f6e74726f6c3a2063616e206f6e6c792072656e6f756e636560448201526e103937b632b9903337b91039b2b63360891b6064820152608401610626565b610f408282611879565b6000610bef836001600160a01b0384166118de565b6108ff816119cb565b6001600160a01b0382166113b25760405162461bcd60e51b815260206004820181905260248201527f4552433732313a206d696e7420746f20746865207a65726f20616464726573736044820152606401610626565b6113bb81610f7e565b156114085760405162461bcd60e51b815260206004820152601c60248201527f4552433732313a20746f6b656e20616c7265616479206d696e746564000000006044820152606401610626565b6114146000838361180a565b6001600160a01b038216600090815260056020526040812080546001929061143d908490612a67565b909155505060008181526004602052604080822080546001600160a01b0319166001600160a01b03861690811790915590518392907fddf252ad1be2c89b69c2b068fc378daa952ba7f163c4a11628f55a4df523b3ef908290a45050565b6114a482610f7e565b6115075760405162461bcd60e51b815260206004820152602e60248201527f45524337323155524953746f726167653a2055524920736574206f66206e6f6e60448201526d32bc34b9ba32b73a103a37b5b2b760911b6064820152608401610626565b6000828152600d60209081526040909120825161075c928401906122bd565b6000610bef8383611a0b565b61153d8484846110f3565b61154984848484611a91565b6109545760405162461bcd60e51b815260040161062690612a96565b606061157082610f7e565b6115d65760405162461bcd60e51b815260206004820152603160248201527f45524337323155524953746f726167653a2055524920717565727920666f72206044820152703737b732bc34b9ba32b73a103a37b5b2b760791b6064820152608401610626565b6000828152600d6020526040812080546115ef9061296b565b80601f016020809104026020016040519081016040528092919081815260200182805461161b9061296b565b80156116685780601f1061163d57610100808354040283529160200191611668565b820191906000526020600020905b81548152906001019060200180831161164b57829003601f168201915b505050505090506000611679611b8f565b905080516000141561168c575092915050565b8151156116be5780826040516020016116a6929190612ae8565b60405160208183030381529060405292505050919050565b6110eb84611b9e565b6000610526825490565b6000828152602081905260409020600101546116ed8133611815565b61075c8383611879565b6117018282610bf6565b610f40576000828152602081815260408083206001600160a01b03851684529091529020805460ff191660011790556117373390565b6001600160a01b0316816001600160a01b0316837f2f8788117e7eff1d82e926ec794901d17c78024a50270940304540a733656f0d60405160405180910390a45050565b60008181526001830160205260408120546117c257508154600181810184556000848152602080822090930184905584548482528286019093526040902091909155610526565b506000610526565b60006001600160e01b031982166380ac58cd60e01b14806117fb57506001600160e01b03198216635b5e139f60e01b145b80610526575061052682611c68565b61075c838383611c8d565b61181f8282610bf6565b610f4057611837816001600160a01b03166014611cff565b611842836020611cff565b604051602001611853929190612b17565b60408051601f198184030181529082905262461bcd60e51b825261062691600401612417565b6118838282610bf6565b15610f40576000828152602081815260408083206001600160a01b0385168085529252808320805460ff1916905551339285917ff6391f5c32d9c69d2a47ea670b442974b53935d1edc7fd64eb21e047a839171b9190a45050565b600081815260018301602052604081205480156119c1576000611902600183612a7f565b855490915060009061191690600190612a7f565b9050600086600001828154811061192f5761192f612a3b565b906000526020600020015490508087600001848154811061195257611952612a3b565b60009182526020808320909101929092558281526001890190915260409020849055865487908061198557611985612b8c565b60019003818190600052602060002001600090559055866001016000878152602001908152602001600020600090556001945050505050610526565b6000915050610526565b6119d481611e9b565b6000818152600d6020526040902080546119ed9061296b565b1590506108ff576000818152600d602052604081206108ff91612341565b81546000908210611a695760405162461bcd60e51b815260206004820152602260248201527f456e756d657261626c655365743a20696e646578206f7574206f6620626f756e604482015261647360f01b6064820152608401610626565b826000018281548110611a7e57611a7e612a3b565b9060005260206000200154905092915050565b60006001600160a01b0384163b15611b8457604051630a85bd0160e11b81526001600160a01b0385169063150b7a0290611ad5903390899088908890600401612ba2565b6020604051808303816000875af1925050508015611b10575060408051601f3d908101601f19168201909252611b0d91810190612bdf565b60015b611b6a573d808015611b3e576040519150601f19603f3d011682016040523d82523d6000602084013e611b43565b606091505b508051611b625760405162461bcd60e51b815260040161062690612a96565b805181602001fd5b6001600160e01b031916630a85bd0160e11b1490506110eb565b506001949350505050565b6060600f805461053b9061296b565b6060611ba982610f7e565b611c0d5760405162461bcd60e51b815260206004820152602f60248201527f4552433732314d657461646174613a2055524920717565727920666f72206e6f60448201526e3732bc34b9ba32b73a103a37b5b2b760891b6064820152608401610626565b6000611c17611b8f565b90506000815111611c375760405180602001604052806000815250610bef565b80611c4184611f42565b604051602001611c52929190612ae8565b6040516020818303038152906040529392505050565b60006001600160e01b03198216635a05180f60e01b1480610526575061052682612040565b611c98838383612075565b600c5460ff161561075c5760405162461bcd60e51b815260206004820152602b60248201527f4552433732315061757361626c653a20746f6b656e207472616e73666572207760448201526a1a1a5b19481c185d5cd95960aa1b6064820152608401610626565b60606000611d0e836002612bfc565b611d19906002612a67565b67ffffffffffffffff811115611d3157611d316124f1565b6040519080825280601f01601f191660200182016040528015611d5b576020820181803683370190505b509050600360fc1b81600081518110611d7657611d76612a3b565b60200101906001600160f81b031916908160001a905350600f60fb1b81600181518110611da557611da5612a3b565b60200101906001600160f81b031916908160001a9053506000611dc9846002612bfc565b611dd4906001612a67565b90505b6001811115611e4c576f181899199a1a9b1b9c1cb0b131b232b360811b85600f1660108110611e0857611e08612a3b565b1a60f81b828281518110611e1e57611e1e612a3b565b60200101906001600160f81b031916908160001a90535060049490941c93611e4581612c1b565b9050611dd7565b508315610bef5760405162461bcd60e51b815260206004820181905260248201527f537472696e67733a20686578206c656e67746820696e73756666696369656e746044820152606401610626565b6000611ea6826109ed565b9050611eb48160008461180a565b611ebf600083610f9b565b6001600160a01b0381166000908152600560205260408120805460019290611ee8908490612a7f565b909155505060008281526004602052604080822080546001600160a01b0319169055518391906001600160a01b038416907fddf252ad1be2c89b69c2b068fc378daa952ba7f163c4a11628f55a4df523b3ef908390a45050565b606081611f665750506040805180820190915260018152600360fc1b602082015290565b8160005b8115611f905780611f7a81612c32565b9150611f899050600a83612c63565b9150611f6a565b60008167ffffffffffffffff811115611fab57611fab6124f1565b6040519080825280601f01601f191660200182016040528015611fd5576020820181803683370190505b5090505b84156110eb57611fea600183612a7f565b9150611ff7600a86612c77565b612002906030612a67565b60f81b81838151811061201757612017612a3b565b60200101906001600160f81b031916908160001a905350612039600a86612c63565b9450611fd9565b60006001600160e01b03198216637965db0b60e01b148061052657506301ffc9a760e01b6001600160e01b0319831614610526565b6001600160a01b0383166120d0576120cb81600a80546000838152600b60205260408120829055600182018355919091527fc65a7bb8d6351c1cf70c95a316cc6a92839c986682d98bc35f958f4883f9d2a80155565b6120f3565b816001600160a01b0316836001600160a01b0316146120f3576120f3838261212d565b6001600160a01b03821661210a5761075c816121ca565b826001600160a01b0316826001600160a01b03161461075c5761075c8282612279565b6000600161213a84610a64565b6121449190612a7f565b600083815260096020526040902054909150808214612197576001600160a01b03841660009081526008602090815260408083208584528252808320548484528184208190558352600990915290208190555b5060009182526009602090815260408084208490556001600160a01b039094168352600881528383209183525290812055565b600a546000906121dc90600190612a7f565b6000838152600b6020526040812054600a805493945090928490811061220457612204612a3b565b9060005260206000200154905080600a838154811061222557612225612a3b565b6000918252602080832090910192909255828152600b9091526040808220849055858252812055600a80548061225d5761225d612b8c565b6001900381819060005260206000200160009055905550505050565b600061228483610a64565b6001600160a01b039093166000908152600860209081526040808320868452825280832085905593825260099052919091209190915550565b8280546122c99061296b565b90600052602060002090601f0160209004810192826122eb5760008555612331565b82601f1061230457805160ff1916838001178555612331565b82800160010185558215612331579182015b82811115612331578251825591602001919060010190612316565b5061233d929150612377565b5090565b50805461234d9061296b565b6000825580601f1061235d575050565b601f0160209004906000526020600020908101906108ff91905b5b8082111561233d5760008155600101612378565b6001600160e01b0319811681146108ff57600080fd5b6000602082840312156123b457600080fd5b8135610bef8161238c565b60005b838110156123da5781810151838201526020016123c2565b838111156109545750506000910152565b600081518084526124038160208601602086016123bf565b601f01601f19169290920160200192915050565b602081526000610bef60208301846123eb565b60006020828403121561243c57600080fd5b5035919050565b80356001600160a01b038116811461245a57600080fd5b919050565b6000806040838503121561247257600080fd5b61247b83612443565b946020939093013593505050565b60008060006060848603121561249e57600080fd5b6124a784612443565b92506124b560208501612443565b9150604084013590509250925092565b600080604083850312156124d857600080fd5b823591506124e860208401612443565b90509250929050565b634e487b7160e01b600052604160045260246000fd5b604051601f8201601f1916810167ffffffffffffffff81118282101715612530576125306124f1565b604052919050565b600067ffffffffffffffff831115612552576125526124f1565b612565601f8401601f1916602001612507565b905082815283838301111561257957600080fd5b828260208301376000602084830101529392505050565b600082601f8301126125a157600080fd5b610bef83833560208501612538565b600080600080608085870312156125c657600080fd5b6125cf85612443565b93506125dd60208601612443565b925060408501359150606085013567ffffffffffffffff81111561260057600080fd5b61260c87828801612590565b91505092959194509250565b60006020828403121561262a57600080fd5b610bef82612443565b60008060006060848603121561264857600080fd5b61265184612443565b925060208401359150604084013567ffffffffffffffff81111561267457600080fd5b61268086828701612590565b9150509250925092565b6000806040838503121561269d57600080fd5b50508035926020909101359150565b600080604083850312156126bf57600080fd5b6126c883612443565b9150602083013580151581146126dd57600080fd5b809150509250929050565b600080600080608085870312156126fe57600080fd5b61270785612443565b935061271560208601612443565b925060408501359150606085013567ffffffffffffffff81111561273857600080fd5b8501601f8101871361274957600080fd5b61260c87823560208401612538565b600067ffffffffffffffff821115612772576127726124f1565b5060051b60200190565b600082601f83011261278d57600080fd5b813560206127a261279d83612758565b612507565b82815260059290921b840181019181810190868411156127c157600080fd5b8286015b848110156127dc57803583529183019183016127c5565b509695505050505050565b600082601f8301126127f857600080fd5b8135602061280861279d83612758565b82815260059290921b8401810191818101908684111561282757600080fd5b8286015b848110156127dc57803567ffffffffffffffff81111561284b5760008081fd5b6128598986838b0101612590565b84525091830191830161282b565b60008060006060848603121561287c57600080fd5b833567ffffffffffffffff8082111561289457600080fd5b818601915086601f8301126128a857600080fd5b813560206128b861279d83612758565b82815260059290921b8401810191818101908a8411156128d757600080fd5b948201945b838610156128fc576128ed86612443565b825294820194908201906128dc565b9750508701359250508082111561291257600080fd5b61291e8783880161277c565b9350604086013591508082111561293457600080fd5b50612680868287016127e7565b6000806040838503121561295457600080fd5b61295d83612443565b91506124e860208401612443565b600181811c9082168061297f57607f821691505b602082108114156129a057634e487b7160e01b600052602260045260246000fd5b50919050565b60208082526031908201527f4552433732313a207472616e736665722063616c6c6572206973206e6f74206f6040820152701ddb995c881b9bdc88185c1c1c9bdd9959607a1b606082015260800190565b60208082526024908201527f4d657461626f784e4654546f6b656e2f6d696e7465722d726f6c652d726571756040820152631a5c995960e21b606082015260800190565b634e487b7160e01b600052603260045260246000fd5b634e487b7160e01b600052601160045260246000fd5b60008219821115612a7a57612a7a612a51565b500190565b600082821015612a9157612a91612a51565b500390565b60208082526032908201527f4552433732313a207472616e7366657220746f206e6f6e20455243373231526560408201527131b2b4bb32b91034b6b83632b6b2b73a32b960711b606082015260800190565b60008351612afa8184602088016123bf565b835190830190612b0e8183602088016123bf565b01949350505050565b7f416363657373436f6e74726f6c3a206163636f756e7420000000000000000000815260008351612b4f8160178501602088016123bf565b7001034b99036b4b9b9b4b733903937b6329607d1b6017918401918201528351612b808160288401602088016123bf565b01602801949350505050565b634e487b7160e01b600052603160045260246000fd5b6001600160a01b0385811682528416602082015260408101839052608060608201819052600090612bd5908301846123eb565b9695505050505050565b600060208284031215612bf157600080fd5b8151610bef8161238c565b6000816000190483118215151615612c1657612c16612a51565b500290565b600081612c2a57612c2a612a51565b506000190190565b6000600019821415612c4657612c46612a51565b5060010190565b634e487b7160e01b600052601260045260246000fd5b600082612c7257612c72612c4d565b500490565b600082612c8657612c86612c4d565b50069056fe9f2df0fed2c77648de5860a4cc508cd0818c85b8b8a1ab4ceeef8d981c8956a6a26469706673582212206c26f31f9f9f2b2ad1c25457275927749e70e7cef129aaac162f15f67ef9b09864736f6c634300080c00338be0079c531659141344cd1fd0a4f28419497f9722a3daafe3b4186f6b6457e09f2df0fed2c77648de5860a4cc508cd0818c85b8b8a1ab4ceeef8d981c8956a6",
  "linkReferences": {},
  "deployedLinkReferences": {}
}